{"abi":[{"type":"function","name":"createEvent","inputs":[{"name":"name","type":"string","internalType":"string"},{"name":"ticketPrice","type":"uint256","internalType":"uint256"},{"name":"ticketSupply","type":"uint256","internalType":"uint256"}],"outputs":[],"stateMutability":"nonpayable"},{"type":"function","name":"deployedEvents","inputs":[{"name":"","type":"uint256","internalType":"uint256"}],"outputs":[{"name":"","type":"address","internalType":"address"}],"stateMutability":"view"},{"type":"function","name":"getDeployedEvents","inputs":[],"outputs":[{"name":"","type":"address[]","internalType":"address[]"}],"stateMutability":"view"},{"type":"event","name":"EventCreated","inputs":[{"name":"eventAddress","type":"address","indexed":false,"internalType":"address"},{"name":"name","type":"string","indexed":false,"internalType":"string"},{"name":"ticketPrice","type":"uint256","indexed":false,"internalType":"uint256"}],"anonymous":false}],"bytecode":{"object":"0x6080604052348015600f57600080fd5b5061153f8061001f6000396000f3fe608060405234801561001057600080fd5b50600436106100415760003560e01c80633812783e146100465780639e9580f614610064578063eade22f614610079575b600080fd5b61004e6100a4565b60405161005b9190610206565b60405180910390f35b610077610072366004610269565b610106565b005b61008c61008736600461032d565b6101cf565b6040516001600160a01b03909116815260200161005b565b606060008054806020026020016040519081016040528092919081815260200182805480156100fc57602002820191906000526020600020905b81546001600160a01b031681526001909101906020018083116100de575b5050505050905090565b600083838333604051610118906101f9565b610125949392919061038c565b604051809103906000f080158015610141573d6000803e3d6000fd5b50600080546001810182559080527f290decd9548b62a8d60345a988386fc84ba6bc95484008f6362f93160ef3e5630180546001600160a01b0319166001600160a01b0383161790556040519091507f84fca91db96bf2ac4269fb42dda353d5a1c4d6dc385dc06d8478e93521163731906101c1908390879087906103c4565b60405180910390a150505050565b600081815481106101df57600080fd5b6000918252602090912001546001600160a01b0316905081565b611111806103f983390190565b6020808252825182820181905260009190848201906040850190845b818110156102475783516001600160a01b031683529284019291840191600101610222565b50909695505050505050565b634e487b7160e01b600052604160045260246000fd5b60008060006060848603121561027e57600080fd5b833567ffffffffffffffff8082111561029657600080fd5b818601915086601f8301126102aa57600080fd5b8135818111156102bc576102bc610253565b604051601f8201601f19908116603f011681019083821181831017156102e4576102e4610253565b816040528281528960208487010111156102fd57600080fd5b82602086016020830137600060208483010152809750505050505060208401359150604084013590509250925092565b60006020828403121561033f57600080fd5b5035919050565b6000815180845260005b8181101561036c57602081850181015186830182015201610350565b506000602082860101526020601f19601f83011685010191505092915050565b60808152600061039f6080830187610346565b60208301959095525060408101929092526001600160a01b0316606090910152919050565b6001600160a01b03841681526060602082018190526000906103e890830185610346565b905082604083015294935050505056fe608060405234801561001057600080fd5b5060405161111138038061111183398101604081905261002f916100e6565b600061003b858261025e565b5060018390556002829055600380546001600160a01b0319166001600160a01b03831617905560005b6002548110156100aa5760068054600181810183556000929092527ff652222313e28459528d920b65115c16c04f3efc82aaedc97be59f3f377c0d3f0182905501610064565b505050505061031d565b634e487b7160e01b600052604160045260246000fd5b80516001600160a01b03811681146100e157600080fd5b919050565b600080600080608085870312156100fc57600080fd5b84516001600160401b038082111561011357600080fd5b818701915087601f83011261012757600080fd5b815181811115610139576101396100b4565b604051601f8201601f19908116603f01168101908382118183101715610161576101616100b4565b81604052828152602093508a8484870101111561017d57600080fd5b600091505b8282101561019f5784820184015181830185015290830190610182565b60008484830101528098505050508087015194505050604085015191506101c8606086016100ca565b905092959194509250565b600181811c908216806101e757607f821691505b60208210810361020757634e487b7160e01b600052602260045260246000fd5b50919050565b601f821115610259576000816000526020600020601f850160051c810160208610156102365750805b601f850160051c820191505b8181101561025557828155600101610242565b5050505b505050565b81516001600160401b03811115610277576102776100b4565b61028b8161028584546101d3565b8461020d565b602080601f8311600181146102c057600084156102a85750858301515b600019600386901b1c1916600185901b178555610255565b600085815260208120601f198616915b828110156102ef578886015182559484019460019091019084016102d0565b508582101561030d5787850151600019600388901b60f8161c191681555b5050505050600190811b01905550565b610de58061032c6000396000f3fe6080604052600436106100dd5760003560e01c80635d83c2b81161007f578063a4b2409e11610059578063a4b2409e1461026f578063dfcd0bbb1461028f578063e2bb3ccf146102af578063edca914c146102d457600080fd5b80635d83c2b814610223578063679ebf1a146102395780638f15024f1461025957600080fd5b806324600fc3116100bb57806324600fc314610153578063266064481461016a578063481c6a751461018a57806350b44712146101c257600080fd5b806306fdde03146100e25780631209b1f61461010d5780631d68c24514610131575b600080fd5b3480156100ee57600080fd5b506100f76102dc565b6040516101049190610b87565b60405180910390f35b34801561011957600080fd5b5061012360015481565b604051908152602001610104565b34801561013d57600080fd5b5061014661036a565b6040516101049190610ba1565b34801561015f57600080fd5b50610168610444565b005b34801561017657600080fd5b50610168610185366004610bee565b6104ee565b34801561019657600080fd5b506003546101aa906001600160a01b031681565b6040516001600160a01b039091168152602001610104565b3480156101ce57600080fd5b506102046101dd366004610bee565b6005602052600090815260409020546001600160a01b03811690600160a01b900460ff1682565b604080516001600160a01b039093168352901515602083015201610104565b34801561022f57600080fd5b5061012360025481565b34801561024557600080fd5b50610168610254366004610c07565b610602565b34801561026557600080fd5b5061012360045481565b34801561027b57600080fd5b5061016861028a366004610bee565b61073e565b34801561029b57600080fd5b506101236102aa366004610bee565b6108e6565b3480156102bb57600080fd5b506102c4610907565b6040516101049493929190610c43565b6101686109b2565b600080546102e990610c72565b80601f016020809104026020016040519081016040528092919081815260200182805461031590610c72565b80156103625780601f1061033757610100808354040283529160200191610362565b820191906000526020600020905b81548152906001019060200180831161034557829003601f168201915b505050505081565b606060008060045467ffffffffffffffff81111561038a5761038a610cac565b6040519080825280602002602001820160405280156103b3578160200160208202803683370190505b50905060005b60025481101561043d576000818152600560205260409020546001600160a01b0316156104355760008181526005602052604090205482516001600160a01b039091169083908590811061040f5761040f610cc2565b6001600160a01b03909216602092830291909101909101528261043181610cee565b9350505b6001016103b9565b5092915050565b6003546001600160a01b031633146104af5760405162461bcd60e51b8152602060048201526024808201527f4f6e6c79206d616e616765722063616e20706572666f726d20746869732061636044820152633a34b7b760e11b60648201526084015b60405180910390fd5b6003546040516001600160a01b039091169081904780156108fc02916000818181858888f193505050501580156104ea573d6000803e3d6000fd5b5050565b8060025481106105105760405162461bcd60e51b81526004016104a690610d07565b60008281526005602052604090205482906001600160a01b031633146105485760405162461bcd60e51b81526004016104a690610d32565b600083815260056020526040902054600160a01b900460ff16156105a45760405162461bcd60e51b8152602060048201526013602482015272151a58dad95d08185b1c9958591e481d5cd959606a1b60448201526064016104a6565b60008381526005602052604090819020805460ff60a01b1916600160a01b179055517f1f5d53e38fbc5a40092861e993062e74fb6dc7acef58356c7b55aa1afd8b3501906105f59085815260200190565b60405180910390a1505050565b8160025481106106245760405162461bcd60e51b81526004016104a690610d07565b60008381526005602052604090205483906001600160a01b0316331461065c5760405162461bcd60e51b81526004016104a690610d32565b600084815260056020526040902054600160a01b900460ff16156106cd5760405162461bcd60e51b815260206004820152602260248201527f55736564207469636b6574732063616e6e6f74206265207472616e7366657272604482015261195960f21b60648201526084016104a6565b60008481526005602090815260409182902080546001600160a01b0319166001600160a01b0387169081179091558251338152918201529081018590527f17fe3deddce525fa12700a731e77ea94c319000ee656076e9e3f0d21638db766906060015b60405180910390a150505050565b8060025481106107605760405162461bcd60e51b81526004016104a690610d07565b60008281526005602052604090205482906001600160a01b031633146107985760405162461bcd60e51b81526004016104a690610d32565b600083815260056020526040902054600160a01b900460ff16156107fe5760405162461bcd60e51b815260206004820152601f60248201527f55736564207469636b6574732063616e6e6f7420626520726566756e6465640060448201526064016104a6565b600083815260056020526040812080546001600160a01b03198116909155600480546001600160a01b039092169261083583610d69565b9091555050600680546001818101835560009283527ff652222313e28459528d920b65115c16c04f3efc82aaedc97be59f3f377c0d3f909101869055546040516001600160a01b0384169282156108fc02929190818181858888f193505050501580156108a6573d6000803e3d6000fd5b50604080516001600160a01b0383168152602081018690527fd2888df1f37c007dfb366793b698e4cc1ad930d5790ea0a3e1764d18f366afce9101610730565b600681815481106108f657600080fd5b600091825260209091200154905081565b606060008060008060015460025460045483805461092490610c72565b80601f016020809104026020016040519081016040528092919081815260200182805461095090610c72565b801561099d5780601f106109725761010080835404028352916020019161099d565b820191906000526020600020905b81548152906001019060200180831161098057829003601f168201915b50505050509350935093509350935090919293565b600654610a015760405162461bcd60e51b815260206004820152601860248201527f416c6c207469636b6574732061726520736f6c64206f7574000000000000000060448201526064016104a6565b6001543414610a4b5760405162461bcd60e51b8152602060048201526016602482015275496e636f7272656374207469636b657420707269636560501b60448201526064016104a6565b6006805460009190610a5f90600190610d80565b81548110610a6f57610a6f610cc2565b906000526020600020015490506006805480610a8d57610a8d610d99565b60008281526020808220830160001990810183905590920190925560408051808201825233815280830184815285855260059093529083209051815492511515600160a01b026001600160a81b03199093166001600160a01b0391909116179190911790556004805491610b0083610cee565b909155505060408051338152602081018390527f0668f5b446eb814fe35b3206f43f14bd8567ba04ddaf7a3ee56516929ab22ccb910160405180910390a150565b6000815180845260005b81811015610b6757602081850181015186830182015201610b4b565b506000602082860101526020601f19601f83011685010191505092915050565b602081526000610b9a6020830184610b41565b9392505050565b6020808252825182820181905260009190848201906040850190845b81811015610be25783516001600160a01b031683529284019291840191600101610bbd565b50909695505050505050565b600060208284031215610c0057600080fd5b5035919050565b60008060408385031215610c1a57600080fd5b8235915060208301356001600160a01b0381168114610c3857600080fd5b809150509250929050565b608081526000610c566080830187610b41565b6020830195909552506040810192909252606090910152919050565b600181811c90821680610c8657607f821691505b602082108103610ca657634e487b7160e01b600052602260045260246000fd5b50919050565b634e487b7160e01b600052604160045260246000fd5b634e487b7160e01b600052603260045260246000fd5b634e487b7160e01b600052601160045260246000fd5b600060018201610d0057610d00610cd8565b5060010190565b602080825260119082015270125b9d985b1a59081d1a58dad95d081251607a1b604082015260600190565b6020808252601a908201527f596f7520646f206e6f74206f776e2074686973207469636b6574000000000000604082015260600190565b600081610d7857610d78610cd8565b506000190190565b81810381811115610d9357610d93610cd8565b92915050565b634e487b7160e01b600052603160045260246000fdfea2646970667358221220672b9563909d37d5ad03e76bd765395c842661cf6f47b6df7e7f7321b6c4391b64736f6c63430008190033a264697066735822122042d9a433c75a17ead29d344508a4b303f4c775d0dcb6917a61b1ed6b24d8b25864736f6c63430008190033","linkReferences":{}},"methodIdentifiers":{"createEvent(string,uint256,uint256)":"9e9580f6","deployedEvents(uint256)":"eade22f6","getDeployedEvents()":"3812783e"},"id":25}