{
  "_format": "hh-sol-artifact-1",
  "contractName": "EventFactory",
  "sourceName": "contracts/Event.sol",
  "abi": [
    {
      "anonymous": false,
      "inputs": [
        {
          "indexed": false,
          "internalType": "address",
          "name": "eventAddress",
          "type": "address"
        },
        {
          "indexed": false,
          "internalType": "string",
          "name": "name",
          "type": "string"
        },
        {
          "indexed": false,
          "internalType": "uint256",
          "name": "ticketPrice",
          "type": "uint256"
        }
      ],
      "name": "EventCreated",
      "type": "event"
    },
    {
      "inputs": [
        {
          "internalType": "string",
          "name": "name",
          "type": "string"
        },
        {
          "internalType": "uint256",
          "name": "ticketPrice",
          "type": "uint256"
        },
        {
          "internalType": "uint256",
          "name": "ticketSupply",
          "type": "uint256"
        }
      ],
      "name": "createEvent",
      "outputs": [],
      "stateMutability": "nonpayable",
      "type": "function"
    },
    {
      "inputs": [
        {
          "internalType": "uint256",
          "name": "",
          "type": "uint256"
        }
      ],
      "name": "deployedEvents",
      "outputs": [
        {
          "internalType": "address",
          "name": "",
          "type": "address"
        }
      ],
      "stateMutability": "view",
      "type": "function"
    },
    {
      "inputs": [],
      "name": "getDeployedEvents",
      "outputs": [
        {
          "internalType": "address[]",
          "name": "",
          "type": "address[]"
        }
      ],
      "stateMutability": "view",
      "type": "function"
    }
  ],
  "bytecode": "0x608060405234801561001057600080fd5b5061283d806100206000396000f3fe60806040523480156200001157600080fd5b5060043610620000465760003560e01c80633812783e146200004b5780639e9580f6146200006d578063eade22f6146200008d575b600080fd5b62000055620000c3565b6040516200006491906200038c565b60405180910390f35b6200008b600480360381019062000085919062000561565b62000153565b005b620000ab6004803603810190620000a59190620005dc565b6200023c565b604051620000ba91906200061f565b60405180910390f35b606060008054806020026020016040519081016040528092919081815260200182805480156200014957602002820191906000526020600020905b8160009054906101000a900473ffffffffffffffffffffffffffffffffffffffff1673ffffffffffffffffffffffffffffffffffffffff1681526020019060010190808311620000fe575b5050505050905090565b60008383833360405162000167906200027c565b620001769493929190620006d6565b604051809103906000f08015801562000193573d6000803e3d6000fd5b5090506000819080600181540180825580915050600190039060005260206000200160009091909190916101000a81548173ffffffffffffffffffffffffffffffffffffffff021916908373ffffffffffffffffffffffffffffffffffffffff1602179055507f84fca91db96bf2ac4269fb42dda353d5a1c4d6dc385dc06d8478e935211637318185856040516200022e939291906200072a565b60405180910390a150505050565b600081815481106200024d57600080fd5b906000526020600020016000915054906101000a900473ffffffffffffffffffffffffffffffffffffffff1681565b612099806200076f83390190565b600081519050919050565b600082825260208201905092915050565b6000819050602082019050919050565b600073ffffffffffffffffffffffffffffffffffffffff82169050919050565b6000620002e382620002b6565b9050919050565b620002f581620002d6565b82525050565b6000620003098383620002ea565b60208301905092915050565b6000602082019050919050565b60006200032f826200028a565b6200033b818562000295565b93506200034883620002a6565b8060005b838110156200037f578151620003638882620002fb565b9750620003708362000315565b9250506001810190506200034c565b5085935050505092915050565b60006020820190508181036000830152620003a8818462000322565b905092915050565b6000604051905090565b600080fd5b600080fd5b600080fd5b600080fd5b6000601f19601f8301169050919050565b7f4e487b7100000000000000000000000000000000000000000000000000000000600052604160045260246000fd5b6200041982620003ce565b810181811067ffffffffffffffff821117156200043b576200043a620003df565b5b80604052505050565b600062000450620003b0565b90506200045e82826200040e565b919050565b600067ffffffffffffffff821115620004815762000480620003df565b5b6200048c82620003ce565b9050602081019050919050565b82818337600083830152505050565b6000620004bf620004b98462000463565b62000444565b905082815260208101848484011115620004de57620004dd620003c9565b5b620004eb84828562000499565b509392505050565b600082601f8301126200050b576200050a620003c4565b5b81356200051d848260208601620004a8565b91505092915050565b6000819050919050565b6200053b8162000526565b81146200054757600080fd5b50565b6000813590506200055b8162000530565b92915050565b6000806000606084860312156200057d576200057c620003ba565b5b600084013567ffffffffffffffff8111156200059e576200059d620003bf565b5b620005ac86828701620004f3565b9350506020620005bf868287016200054a565b9250506040620005d2868287016200054a565b9150509250925092565b600060208284031215620005f557620005f4620003ba565b5b600062000605848285016200054a565b91505092915050565b6200061981620002d6565b82525050565b60006020820190506200063660008301846200060e565b92915050565b600081519050919050565b600082825260208201905092915050565b60005b83811015620006785780820151818401526020810190506200065b565b60008484015250505050565b600062000691826200063c565b6200069d818562000647565b9350620006af81856020860162000658565b620006ba81620003ce565b840191505092915050565b620006d08162000526565b82525050565b60006080820190508181036000830152620006f2818762000684565b9050620007036020830186620006c5565b620007126040830185620006c5565b6200072160608301846200060e565b95945050505050565b60006060820190506200074160008301866200060e565b818103602083015262000755818562000684565b9050620007666040830184620006c5565b94935050505056fe60806040523480156200001157600080fd5b50604051620020993803806200209983398181016040528101906200003791906200031b565b8360009081620000489190620005ed565b50826001819055508160028190555080600360006101000a81548173ffffffffffffffffffffffffffffffffffffffff021916908373ffffffffffffffffffffffffffffffffffffffff16021790555060005b600254811015620000dd57600681908060018154018082558091505060019003906000526020600020016000909190919091505580806001019150506200009b565b5050505050620006d4565b6000604051905090565b600080fd5b600080fd5b600080fd5b600080fd5b6000601f19601f8301169050919050565b7f4e487b7100000000000000000000000000000000000000000000000000000000600052604160045260246000fd5b620001518262000106565b810181811067ffffffffffffffff8211171562000173576200017262000117565b5b80604052505050565b600062000188620000e8565b905062000196828262000146565b919050565b600067ffffffffffffffff821115620001b957620001b862000117565b5b620001c48262000106565b9050602081019050919050565b60005b83811015620001f1578082015181840152602081019050620001d4565b60008484015250505050565b6000620002146200020e846200019b565b6200017c565b90508281526020810184848401111562000233576200023262000101565b5b62000240848285620001d1565b509392505050565b600082601f83011262000260576200025f620000fc565b5b815162000272848260208601620001fd565b91505092915050565b6000819050919050565b62000290816200027b565b81146200029c57600080fd5b50565b600081519050620002b08162000285565b92915050565b600073ffffffffffffffffffffffffffffffffffffffff82169050919050565b6000620002e382620002b6565b9050919050565b620002f581620002d6565b81146200030157600080fd5b50565b6000815190506200031581620002ea565b92915050565b60008060008060808587031215620003385762000337620000f2565b5b600085015167ffffffffffffffff811115620003595762000358620000f7565b5b620003678782880162000248565b94505060206200037a878288016200029f565b93505060406200038d878288016200029f565b9250506060620003a08782880162000304565b91505092959194509250565b600081519050919050565b7f4e487b7100000000000000000000000000000000000000000000000000000000600052602260045260246000fd5b60006002820490506001821680620003ff57607f821691505b602082108103620004155762000414620003b7565b5b50919050565b60008190508160005260206000209050919050565b60006020601f8301049050919050565b600082821b905092915050565b6000600883026200047f7fffffffffffffffffffffffffffffffffffffffffffffffffffffffffffffffff8262000440565b6200048b868362000440565b95508019841693508086168417925050509392505050565b6000819050919050565b6000620004ce620004c8620004c2846200027b565b620004a3565b6200027b565b9050919050565b6000819050919050565b620004ea83620004ad565b62000502620004f982620004d5565b8484546200044d565b825550505050565b600090565b620005196200050a565b62000526818484620004df565b505050565b5b818110156200054e57620005426000826200050f565b6001810190506200052c565b5050565b601f8211156200059d5762000567816200041b565b620005728462000430565b8101602085101562000582578190505b6200059a620005918562000430565b8301826200052b565b50505b505050565b600082821c905092915050565b6000620005c260001984600802620005a2565b1980831691505092915050565b6000620005dd8383620005af565b9150826002028217905092915050565b620005f882620003ac565b67ffffffffffffffff81111562000614576200061362000117565b5b620006208254620003e6565b6200062d82828562000552565b600060209050601f83116001811462000665576000841562000650578287015190505b6200065c8582620005cf565b865550620006cc565b601f19841662000675866200041b565b60005b828110156200069f5784890151825560018201915060208501945060208101905062000678565b86831015620006bf5784890151620006bb601f891682620005af565b8355505b6001600288020188555050505b505050505050565b6119b580620006e46000396000f3fe6080604052600436106100dd5760003560e01c80635d83c2b81161007f578063a4b2409e11610059578063a4b2409e1461028b578063dfcd0bbb146102b4578063e2bb3ccf146102f1578063edca914c1461031f576100dd565b80635d83c2b81461020c578063679ebf1a146102375780638f15024f14610260576100dd565b806324600fc3116100bb57806324600fc314610163578063266064481461017a578063481c6a75146101a357806350b44712146101ce576100dd565b806306fdde03146100e25780631209b1f61461010d5780631d68c24514610138575b600080fd5b3480156100ee57600080fd5b506100f7610329565b604051610104919061103e565b60405180910390f35b34801561011957600080fd5b506101226103b7565b60405161012f9190611079565b60405180910390f35b34801561014457600080fd5b5061014d6103bd565b60405161015a9190611184565b60405180910390f35b34801561016f57600080fd5b5061017861052f565b005b34801561018657600080fd5b506101a1600480360381019061019c91906111d7565b610630565b005b3480156101af57600080fd5b506101b86107e9565b6040516101c59190611213565b60405180910390f35b3480156101da57600080fd5b506101f560048036038101906101f091906111d7565b61080f565b604051610203929190611249565b60405180910390f35b34801561021857600080fd5b50610221610860565b60405161022e9190611079565b60405180910390f35b34801561024357600080fd5b5061025e6004803603810190610259919061129e565b610866565b005b34801561026c57600080fd5b50610275610a4a565b6040516102829190611079565b60405180910390f35b34801561029757600080fd5b506102b260048036038101906102ad91906111d7565b610a50565b005b3480156102c057600080fd5b506102db60048036038101906102d691906111d7565b610cf8565b6040516102e89190611079565b60405180910390f35b3480156102fd57600080fd5b50610306610d1c565b60405161031694939291906112de565b60405180910390f35b610327610dc7565b005b6000805461033690611359565b80601f016020809104026020016040519081016040528092919081815260200182805461036290611359565b80156103af5780601f10610384576101008083540402835291602001916103af565b820191906000526020600020905b81548152906001019060200180831161039257829003601f168201915b505050505081565b60015481565b606060008060045467ffffffffffffffff8111156103de576103dd61138a565b5b60405190808252806020026020018201604052801561040c5781602001602082028036833780820191505090505b50905060005b60025481101561052657600073ffffffffffffffffffffffffffffffffffffffff166005600083815260200190815260200160002060000160009054906101000a900473ffffffffffffffffffffffffffffffffffffffff1673ffffffffffffffffffffffffffffffffffffffff1614610519576005600082815260200190815260200160002060000160009054906101000a900473ffffffffffffffffffffffffffffffffffffffff168284815181106104d0576104cf6113b9565b5b602002602001019073ffffffffffffffffffffffffffffffffffffffff16908173ffffffffffffffffffffffffffffffffffffffff1681525050828061051590611417565b9350505b8080600101915050610412565b50809250505090565b600360009054906101000a900473ffffffffffffffffffffffffffffffffffffffff1673ffffffffffffffffffffffffffffffffffffffff163373ffffffffffffffffffffffffffffffffffffffff16146105bf576040517f08c379a00000000000000000000000000000000000000000000000000000000081526004016105b6906114d1565b60405180910390fd5b6000600360009054906101000a900473ffffffffffffffffffffffffffffffffffffffff1690508073ffffffffffffffffffffffffffffffffffffffff166108fc479081150290604051600060405180830381858888f1935050505015801561062c573d6000803e3d6000fd5b5050565b806002548110610675576040517f08c379a000000000000000000000000000000000000000000000000000000000815260040161066c9061153d565b60405180910390fd5b813373ffffffffffffffffffffffffffffffffffffffff166005600083815260200190815260200160002060000160009054906101000a900473ffffffffffffffffffffffffffffffffffffffff1673ffffffffffffffffffffffffffffffffffffffff161461071a576040517f08c379a0000000000000000000000000000000000000000000000000000000008152600401610711906115a9565b60405180910390fd5b6005600084815260200190815260200160002060000160149054906101000a900460ff161561077e576040517f08c379a000000000000000000000000000000000000000000000000000000000815260040161077590611615565b60405180910390fd5b60016005600085815260200190815260200160002060000160146101000a81548160ff0219169083151502179055507f1f5d53e38fbc5a40092861e993062e74fb6dc7acef58356c7b55aa1afd8b3501836040516107dc9190611079565b60405180910390a1505050565b600360009054906101000a900473ffffffffffffffffffffffffffffffffffffffff1681565b60056020528060005260406000206000915090508060000160009054906101000a900473ffffffffffffffffffffffffffffffffffffffff16908060000160149054906101000a900460ff16905082565b60025481565b8160025481106108ab576040517f08c379a00000000000000000000000000000000000000000000000000000000081526004016108a29061153d565b60405180910390fd5b823373ffffffffffffffffffffffffffffffffffffffff166005600083815260200190815260200160002060000160009054906101000a900473ffffffffffffffffffffffffffffffffffffffff1673ffffffffffffffffffffffffffffffffffffffff1614610950576040517f08c379a0000000000000000000000000000000000000000000000000000000008152600401610947906115a9565b60405180910390fd5b6005600085815260200190815260200160002060000160149054906101000a900460ff16156109b4576040517f08c379a00000000000000000000000000000000000000000000000000000000081526004016109ab906116a7565b60405180910390fd5b826005600086815260200190815260200160002060000160006101000a81548173ffffffffffffffffffffffffffffffffffffffff021916908373ffffffffffffffffffffffffffffffffffffffff1602179055507f17fe3deddce525fa12700a731e77ea94c319000ee656076e9e3f0d21638db766338486604051610a3c939291906116c7565b60405180910390a150505050565b60045481565b806002548110610a95576040517f08c379a0000000000000000000000000000000000000000000000000000000008152600401610a8c9061153d565b60405180910390fd5b813373ffffffffffffffffffffffffffffffffffffffff166005600083815260200190815260200160002060000160009054906101000a900473ffffffffffffffffffffffffffffffffffffffff1673ffffffffffffffffffffffffffffffffffffffff1614610b3a576040517f08c379a0000000000000000000000000000000000000000000000000000000008152600401610b31906115a9565b60405180910390fd5b6005600084815260200190815260200160002060000160149054906101000a900460ff1615610b9e576040517f08c379a0000000000000000000000000000000000000000000000000000000008152600401610b959061174a565b60405180910390fd5b60006005600085815260200190815260200160002060000160009054906101000a900473ffffffffffffffffffffffffffffffffffffffff16905060006005600086815260200190815260200160002060000160006101000a81548173ffffffffffffffffffffffffffffffffffffffff021916908373ffffffffffffffffffffffffffffffffffffffff16021790555060046000815480929190610c429061176a565b919050555060068490806001815401808255809150506001900390600052602060002001600090919091909150558073ffffffffffffffffffffffffffffffffffffffff166108fc6001549081150290604051600060405180830381858888f19350505050158015610cb8573d6000803e3d6000fd5b507fd2888df1f37c007dfb366793b698e4cc1ad930d5790ea0a3e1764d18f366afce8185604051610cea9291906117f2565b60405180910390a150505050565b60068181548110610d0857600080fd5b906000526020600020016000915090505481565b6060600080600080600154600254600454838054610d3990611359565b80601f0160208091040260200160405190810160405280929190818152602001828054610d6590611359565b8015610db25780601f10610d8757610100808354040283529160200191610db2565b820191906000526020600020905b815481529060010190602001808311610d9557829003601f168201915b50505050509350935093509350935090919293565b600060068054905011610e0f576040517f08c379a0000000000000000000000000000000000000000000000000000000008152600401610e0690611867565b60405180910390fd5b6001543414610e53576040517f08c379a0000000000000000000000000000000000000000000000000000000008152600401610e4a906118d3565b60405180910390fd5b600060066001600680549050610e6991906118f3565b81548110610e7a57610e796113b9565b5b906000526020600020015490506006805480610e9957610e98611927565b5b6001900381819060005260206000200160009055905560405180604001604052803373ffffffffffffffffffffffffffffffffffffffff168152602001600015158152506005600083815260200190815260200160002060008201518160000160006101000a81548173ffffffffffffffffffffffffffffffffffffffff021916908373ffffffffffffffffffffffffffffffffffffffff16021790555060208201518160000160146101000a81548160ff02191690831515021790555090505060046000815480929190610f6d90611417565b91905055507f0668f5b446eb814fe35b3206f43f14bd8567ba04ddaf7a3ee56516929ab22ccb3382604051610fa3929190611956565b60405180910390a150565b600081519050919050565b600082825260208201905092915050565b60005b83811015610fe8578082015181840152602081019050610fcd565b60008484015250505050565b6000601f19601f8301169050919050565b600061101082610fae565b61101a8185610fb9565b935061102a818560208601610fca565b61103381610ff4565b840191505092915050565b600060208201905081810360008301526110588184611005565b905092915050565b6000819050919050565b61107381611060565b82525050565b600060208201905061108e600083018461106a565b92915050565b600081519050919050565b600082825260208201905092915050565b6000819050602082019050919050565b600073ffffffffffffffffffffffffffffffffffffffff82169050919050565b60006110eb826110c0565b9050919050565b6110fb816110e0565b82525050565b600061110d83836110f2565b60208301905092915050565b6000602082019050919050565b600061113182611094565b61113b818561109f565b9350611146836110b0565b8060005b8381101561117757815161115e8882611101565b975061116983611119565b92505060018101905061114a565b5085935050505092915050565b6000602082019050818103600083015261119e8184611126565b905092915050565b600080fd5b6111b481611060565b81146111bf57600080fd5b50565b6000813590506111d1816111ab565b92915050565b6000602082840312156111ed576111ec6111a6565b5b60006111fb848285016111c2565b91505092915050565b61120d816110e0565b82525050565b60006020820190506112286000830184611204565b92915050565b60008115159050919050565b6112438161122e565b82525050565b600060408201905061125e6000830185611204565b61126b602083018461123a565b9392505050565b61127b816110e0565b811461128657600080fd5b50565b60008135905061129881611272565b92915050565b600080604083850312156112b5576112b46111a6565b5b60006112c3858286016111c2565b92505060206112d485828601611289565b9150509250929050565b600060808201905081810360008301526112f88187611005565b9050611307602083018661106a565b611314604083018561106a565b611321606083018461106a565b95945050505050565b7f4e487b7100000000000000000000000000000000000000000000000000000000600052602260045260246000fd5b6000600282049050600182168061137157607f821691505b6020821081036113845761138361132a565b5b50919050565b7f4e487b7100000000000000000000000000000000000000000000000000000000600052604160045260246000fd5b7f4e487b7100000000000000000000000000000000000000000000000000000000600052603260045260246000fd5b7f4e487b7100000000000000000000000000000000000000000000000000000000600052601160045260246000fd5b600061142282611060565b91507fffffffffffffffffffffffffffffffffffffffffffffffffffffffffffffffff8203611454576114536113e8565b5b600182019050919050565b7f4f6e6c79206d616e616765722063616e20706572666f726d207468697320616360008201527f74696f6e00000000000000000000000000000000000000000000000000000000602082015250565b60006114bb602483610fb9565b91506114c68261145f565b604082019050919050565b600060208201905081810360008301526114ea816114ae565b9050919050565b7f496e76616c6964207469636b6574204944000000000000000000000000000000600082015250565b6000611527601183610fb9565b9150611532826114f1565b602082019050919050565b600060208201905081810360008301526115568161151a565b9050919050565b7f596f7520646f206e6f74206f776e2074686973207469636b6574000000000000600082015250565b6000611593601a83610fb9565b915061159e8261155d565b602082019050919050565b600060208201905081810360008301526115c281611586565b9050919050565b7f5469636b657420616c7265616479207573656400000000000000000000000000600082015250565b60006115ff601383610fb9565b915061160a826115c9565b602082019050919050565b6000602082019050818103600083015261162e816115f2565b9050919050565b7f55736564207469636b6574732063616e6e6f74206265207472616e736665727260008201527f6564000000000000000000000000000000000000000000000000000000000000602082015250565b6000611691602283610fb9565b915061169c82611635565b604082019050919050565b600060208201905081810360008301526116c081611684565b9050919050565b60006060820190506116dc6000830186611204565b6116e96020830185611204565b6116f6604083018461106a565b949350505050565b7f55736564207469636b6574732063616e6e6f7420626520726566756e64656400600082015250565b6000611734601f83610fb9565b915061173f826116fe565b602082019050919050565b6000602082019050818103600083015261176381611727565b9050919050565b600061177582611060565b915060008203611788576117876113e8565b5b600182039050919050565b6000819050919050565b60006117b86117b36117ae846110c0565b611793565b6110c0565b9050919050565b60006117ca8261179d565b9050919050565b60006117dc826117bf565b9050919050565b6117ec816117d1565b82525050565b600060408201905061180760008301856117e3565b611814602083018461106a565b9392505050565b7f416c6c207469636b6574732061726520736f6c64206f75740000000000000000600082015250565b6000611851601883610fb9565b915061185c8261181b565b602082019050919050565b6000602082019050818103600083015261188081611844565b9050919050565b7f496e636f7272656374207469636b657420707269636500000000000000000000600082015250565b60006118bd601683610fb9565b91506118c882611887565b602082019050919050565b600060208201905081810360008301526118ec816118b0565b9050919050565b60006118fe82611060565b915061190983611060565b9250828203905081811115611921576119206113e8565b5b92915050565b7f4e487b7100000000000000000000000000000000000000000000000000000000600052603160045260246000fd5b600060408201905061196b6000830185611204565b611978602083018461106a565b939250505056fea2646970667358221220a28e3111765b2b32217cae6671822ec65c107e5967f117404b119631fdb5622764736f6c63430008180033a2646970667358221220d64dfc2587b57735f295c8b26123c81bda1402425b1060ff7d34e30a3165703864736f6c63430008180033",
  "linkReferences": {},
  "deployedLinkReferences": {}
}